{
  "_format": "hh-sol-artifact-1",
  "contractName": "FixedPriceSeller",
  "sourceName": "contracts/FixedPriceSeller.sol",
  "abi": [
    {
      "anonymous": false,
      "inputs": [
        {
          "indexed": false,
          "internalType": "address",
          "name": "token",
          "type": "address"
        },
        {
          "indexed": false,
          "internalType": "address",
          "name": "holder",
          "type": "address"
        },
        {
          "indexed": false,
          "internalType": "uint256",
          "name": "pricePerToken",
          "type": "uint256"
        }
      ],
      "name": "PricePerToken",
      "type": "event"
    },
    {
      "inputs": [
        {
          "internalType": "contract IERC777",
          "name": "_token",
          "type": "address"
        }
      ],
      "name": "getCurrentSellers",
      "outputs": [
        {
          "internalType": "address[]",
          "name": "",
          "type": "address[]"
        }
      ],
      "stateMutability": "view",
      "type": "function"
    },
    {
      "inputs": [
        {
          "internalType": "contract IERC777",
          "name": "_token",
          "type": "address"
        },
        {
          "internalType": "address",
          "name": "_holder",
          "type": "address"
        }
      ],
      "name": "getPricePerToken",
      "outputs": [
        {
          "internalType": "uint256",
          "name": "",
          "type": "uint256"
        }
      ],
      "stateMutability": "view",
      "type": "function"
    },
    {
      "inputs": [
        {
          "internalType": "contract IERC777",
          "name": "_token",
          "type": "address"
        },
        {
          "internalType": "address payable",
          "name": "_holder",
          "type": "address"
        }
      ],
      "name": "send",
      "outputs": [],
      "stateMutability": "payable",
      "type": "function"
    },
    {
      "inputs": [
        {
          "internalType": "contract IERC777",
          "name": "_token",
          "type": "address"
        },
        {
          "internalType": "uint256",
          "name": "_pricePerToken",
          "type": "uint256"
        }
      ],
      "name": "setPricePerToken",
      "outputs": [],
      "stateMutability": "nonpayable",
      "type": "function"
    },
    {
      "inputs": [],
      "name": "totalNumOfSellers",
      "outputs": [
        {
          "internalType": "uint256",
          "name": "",
          "type": "uint256"
        }
      ],
      "stateMutability": "view",
      "type": "function"
    }
  ],
  "bytecode": "0x608060405234801561001057600080fd5b50611185806100206000396000f3fe60806040526004361061004a5760003560e01c80632f3c52fa1461004f578063b6d9d45114610078578063e768985114610094578063f9fcfd7d146100bf578063fe408092146100fc575b600080fd5b34801561005b57600080fd5b5061007660048036038101906100719190610aec565b610139565b005b610092600480360381019061008d9190610ab0565b610364565b005b3480156100a057600080fd5b506100a96103ef565b6040516100b69190610de8565b60405180910390f35b3480156100cb57600080fd5b506100e660048036038101906100e19190610a74565b6103f5565b6040516100f39190610de8565b60405180910390f35b34801561010857600080fd5b50610123600480360381019061011e9190610a4b565b61047b565b6040516101309190610d46565b60405180910390f35b600081101561017d576040517f08c379a000000000000000000000000000000000000000000000000000000000815260040161017490610d88565b60405180910390fd5b806000808473ffffffffffffffffffffffffffffffffffffffff1673ffffffffffffffffffffffffffffffffffffffff16815260200190815260200160002060003373ffffffffffffffffffffffffffffffffffffffff1673ffffffffffffffffffffffffffffffffffffffff168152602001908152602001600020819055507ff49122665257e3aefb3416c9bbcb019d286d2149ef98821afc113779eabe65ec82338360405161023093929190610d0f565b60405180910390a16000339050600082111561035f57600260008273ffffffffffffffffffffffffffffffffffffffff1673ffffffffffffffffffffffffffffffffffffffff16815260200190815260200160002060009054906101000a900460ff1661035e576001600260008373ffffffffffffffffffffffffffffffffffffffff1673ffffffffffffffffffffffffffffffffffffffff16815260200190815260200160002060006101000a81548160ff02191690831515021790555060006001600081548092919061030490610f7f565b919050559050816003600083815260200190815260200160002060006101000a81548173ffffffffffffffffffffffffffffffffffffffff021916908373ffffffffffffffffffffffffffffffffffffffff160217905550505b5b505050565b6000610370838361067b565b90508273ffffffffffffffffffffffffffffffffffffffff166362ad1b838333846040518463ffffffff1660e01b81526004016103af93929190610cb2565b600060405180830381600087803b1580156103c957600080fd5b505af11580156103dd573d6000803e3d6000fd5b505050506103ea8261096c565b505050565b60015481565b60008060008473ffffffffffffffffffffffffffffffffffffffff1673ffffffffffffffffffffffffffffffffffffffff16815260200190815260200160002060008373ffffffffffffffffffffffffffffffffffffffff1673ffffffffffffffffffffffffffffffffffffffff16815260200190815260200160002054905092915050565b6060600060015467ffffffffffffffff8111156104c1577f4e487b7100000000000000000000000000000000000000000000000000000000600052604160045260246000fd5b6040519080825280602002602001820160405280156104ef5781602001602082028036833780820191505090505b50905060005b6001548110156106715760008060008673ffffffffffffffffffffffffffffffffffffffff1673ffffffffffffffffffffffffffffffffffffffff16815260200190815260200160002060006003600085815260200190815260200160002060009054906101000a900473ffffffffffffffffffffffffffffffffffffffff1673ffffffffffffffffffffffffffffffffffffffff1673ffffffffffffffffffffffffffffffffffffffff16815260200190815260200160002054111561065e576003600082815260200190815260200160002060009054906101000a900473ffffffffffffffffffffffffffffffffffffffff16828281518110610623577f4e487b7100000000000000000000000000000000000000000000000000000000600052603260045260246000fd5b602002602001019073ffffffffffffffffffffffffffffffffffffffff16908173ffffffffffffffffffffffffffffffffffffffff16815250505b808061066990610f7f565b9150506104f5565b5080915050919050565b6000806000808573ffffffffffffffffffffffffffffffffffffffff1673ffffffffffffffffffffffffffffffffffffffff16815260200190815260200160002060008473ffffffffffffffffffffffffffffffffffffffff1673ffffffffffffffffffffffffffffffffffffffff16815260200190815260200160002054141561073b576040517f08c379a000000000000000000000000000000000000000000000000000000000815260040161073290610da8565b60405180910390fd5b60006107cb6000808673ffffffffffffffffffffffffffffffffffffffff1673ffffffffffffffffffffffffffffffffffffffff16815260200190815260200160002060008573ffffffffffffffffffffffffffffffffffffffff1673ffffffffffffffffffffffffffffffffffffffff16815260200190815260200160002054346109b690919063ffffffff16565b90508373ffffffffffffffffffffffffffffffffffffffff1663556f0dc76040518163ffffffff1660e01b815260040160206040518083038186803b15801561081357600080fd5b505afa158015610827573d6000803e3d6000fd5b505050506040513d601f19601f8201168201806040525081019061084b9190610b28565b81101561088d576040517f08c379a000000000000000000000000000000000000000000000000000000000815260040161088490610dc8565b60405180910390fd5b600061091d6000808773ffffffffffffffffffffffffffffffffffffffff1673ffffffffffffffffffffffffffffffffffffffff16815260200190815260200160002060008673ffffffffffffffffffffffffffffffffffffffff1673ffffffffffffffffffffffffffffffffffffffff16815260200190815260200160002054836109cc90919063ffffffff16565b9050348114610961576040517f08c379a000000000000000000000000000000000000000000000000000000000815260040161095890610d68565b60405180910390fd5b819250505092915050565b8073ffffffffffffffffffffffffffffffffffffffff166108fc349081150290604051600060405180830381858888f193505050501580156109b2573d6000803e3d6000fd5b5050565b600081836109c49190610e5e565b905092915050565b600081836109da9190610e8f565b905092915050565b6000813590506109f1816110f3565b92915050565b600081359050610a068161110a565b92915050565b600081359050610a1b81611121565b92915050565b600081359050610a3081611138565b92915050565b600081519050610a4581611138565b92915050565b600060208284031215610a5d57600080fd5b6000610a6b84828501610a0c565b91505092915050565b60008060408385031215610a8757600080fd5b6000610a9585828601610a0c565b9250506020610aa6858286016109e2565b9150509250929050565b60008060408385031215610ac357600080fd5b6000610ad185828601610a0c565b9250506020610ae2858286016109f7565b9150509250929050565b60008060408385031215610aff57600080fd5b6000610b0d85828601610a0c565b9250506020610b1e85828601610a21565b9150509250929050565b600060208284031215610b3a57600080fd5b6000610b4884828501610a36565b91505092915050565b6000610b5d8383610b78565b60208301905092915050565b610b7281610f49565b82525050565b610b8181610ee9565b82525050565b610b9081610ee9565b82525050565b6000610ba182610e13565b610bab8185610e2b565b9350610bb683610e03565b8060005b83811015610be7578151610bce8882610b51565b9750610bd983610e1e565b925050600181019050610bba565b5085935050505092915050565b6000610c01602683610e4d565b9150610c0c82611026565b604082019050919050565b6000610c24601783610e4d565b9150610c2f82611075565b602082019050919050565b6000610c47600083610e3c565b9150610c528261109e565b600082019050919050565b6000610c6a600c83610e4d565b9150610c75826110a1565b602082019050919050565b6000610c8d601583610e4d565b9150610c98826110ca565b602082019050919050565b610cac81610f3f565b82525050565b600060a082019050610cc76000830186610b69565b610cd46020830185610b87565b610ce16040830184610ca3565b8181036060830152610cf281610c3a565b90508181036080830152610d0581610c3a565b9050949350505050565b6000606082019050610d246000830186610b87565b610d316020830185610b87565b610d3e6040830184610ca3565b949350505050565b60006020820190508181036000830152610d608184610b96565b905092915050565b60006020820190508181036000830152610d8181610bf4565b9050919050565b60006020820190508181036000830152610da181610c17565b9050919050565b60006020820190508181036000830152610dc181610c5d565b9050919050565b60006020820190508181036000830152610de181610c80565b9050919050565b6000602082019050610dfd6000830184610ca3565b92915050565b6000819050602082019050919050565b600081519050919050565b6000602082019050919050565b600082825260208201905092915050565b600082825260208201905092915050565b600082825260208201905092915050565b6000610e6982610f3f565b9150610e7483610f3f565b925082610e8457610e83610ff7565b5b828204905092915050565b6000610e9a82610f3f565b9150610ea583610f3f565b9250817fffffffffffffffffffffffffffffffffffffffffffffffffffffffffffffffff0483118215151615610ede57610edd610fc8565b5b828202905092915050565b6000610ef482610f1f565b9050919050565b6000610f0682610f1f565b9050919050565b6000610f1882610ee9565b9050919050565b600073ffffffffffffffffffffffffffffffffffffffff82169050919050565b6000819050919050565b6000610f5482610f5b565b9050919050565b6000610f6682610f6d565b9050919050565b6000610f7882610f1f565b9050919050565b6000610f8a82610f3f565b91507fffffffffffffffffffffffffffffffffffffffffffffffffffffffffffffffff821415610fbd57610fbc610fc8565b5b600182019050919050565b7f4e487b7100000000000000000000000000000000000000000000000000000000600052601160045260246000fd5b7f4e487b7100000000000000000000000000000000000000000000000000000000600052601260045260246000fd5b7f6e6f6e2d696e7465676572206e756d626572206f6620746f6b656e732070757260008201527f6368617365640000000000000000000000000000000000000000000000000000602082015250565b7f50726963652063616e2774206265206e65676174697665000000000000000000600082015250565b50565b7f6e6f7420666f722073616c650000000000000000000000000000000000000000600082015250565b7f6e6f7420656e6f75676820657468657220706169640000000000000000000000600082015250565b6110fc81610ee9565b811461110757600080fd5b50565b61111381610efb565b811461111e57600080fd5b50565b61112a81610f0d565b811461113557600080fd5b50565b61114181610f3f565b811461114c57600080fd5b5056fea264697066735822122026e4914370a05192dbe804866c01c3cb89f802f9e18013cf5682efed362e5d2164736f6c63430008040033",
  "linkReferences": {},
  "deployedLinkReferences": {}
}