{
  "_format": "hh-sol-artifact-1",
  "contractName": "FixedPriceSeller",
  "sourceName": "contracts/FixedPriceSeller.sol",
  "abi": [
    {
      "anonymous": false,
      "inputs": [
        {
          "indexed": false,
          "internalType": "address",
          "name": "token",
          "type": "address"
        },
        {
          "indexed": false,
          "internalType": "address",
          "name": "holder",
          "type": "address"
        },
        {
          "indexed": false,
          "internalType": "uint256",
          "name": "pricePerToken",
          "type": "uint256"
        }
      ],
      "name": "PricePerToken",
      "type": "event"
    },
    {
      "inputs": [
        {
          "internalType": "contract IERC777",
          "name": "_token",
          "type": "address"
        }
      ],
      "name": "getCurrentSellers",
      "outputs": [
        {
          "internalType": "address[]",
          "name": "",
          "type": "address[]"
        }
      ],
      "stateMutability": "view",
      "type": "function"
    },
    {
      "inputs": [
        {
          "internalType": "contract IERC777",
          "name": "_token",
          "type": "address"
        },
        {
          "internalType": "address",
          "name": "_holder",
          "type": "address"
        }
      ],
      "name": "getPricePerToken",
      "outputs": [
        {
          "internalType": "uint256",
          "name": "",
          "type": "uint256"
        }
      ],
      "stateMutability": "view",
      "type": "function"
    },
    {
      "inputs": [
        {
          "internalType": "contract IERC777",
          "name": "_token",
          "type": "address"
        },
        {
          "internalType": "address payable",
          "name": "_holder",
          "type": "address"
        }
      ],
      "name": "send",
      "outputs": [],
      "stateMutability": "payable",
      "type": "function"
    },
    {
      "inputs": [
        {
          "internalType": "contract IERC777",
          "name": "_token",
          "type": "address"
        },
        {
          "internalType": "uint256",
          "name": "_pricePerToken",
          "type": "uint256"
        }
      ],
      "name": "setPricePerToken",
      "outputs": [],
      "stateMutability": "nonpayable",
      "type": "function"
    },
    {
      "inputs": [],
      "name": "totalNumOfSellers",
      "outputs": [
        {
          "internalType": "uint256",
          "name": "",
          "type": "uint256"
        }
      ],
      "stateMutability": "view",
      "type": "function"
    }
  ],
  "bytecode": "0x608060405234801561001057600080fd5b50611184806100206000396000f3fe60806040526004361061004a5760003560e01c80632f3c52fa1461004f578063b6d9d45114610078578063e768985114610094578063f9fcfd7d146100bf578063fe408092146100fc575b600080fd5b34801561005b57600080fd5b5061007660048036038101906100719190610aeb565b610139565b005b610092600480360381019061008d9190610aaf565b610364565b005b3480156100a057600080fd5b506100a96103ef565b6040516100b69190610de7565b60405180910390f35b3480156100cb57600080fd5b506100e660048036038101906100e19190610a73565b6103f5565b6040516100f39190610de7565b60405180910390f35b34801561010857600080fd5b50610123600480360381019061011e9190610a4a565b61047b565b6040516101309190610d45565b60405180910390f35b600081101561017d576040517f08c379a000000000000000000000000000000000000000000000000000000000815260040161017490610d87565b60405180910390fd5b806000808473ffffffffffffffffffffffffffffffffffffffff1673ffffffffffffffffffffffffffffffffffffffff16815260200190815260200160002060003373ffffffffffffffffffffffffffffffffffffffff1673ffffffffffffffffffffffffffffffffffffffff168152602001908152602001600020819055507ff49122665257e3aefb3416c9bbcb019d286d2149ef98821afc113779eabe65ec82338360405161023093929190610d0e565b60405180910390a16000339050600082111561035f57600260008273ffffffffffffffffffffffffffffffffffffffff1673ffffffffffffffffffffffffffffffffffffffff16815260200190815260200160002060009054906101000a900460ff1661035e576001600260008373ffffffffffffffffffffffffffffffffffffffff1673ffffffffffffffffffffffffffffffffffffffff16815260200190815260200160002060006101000a81548160ff02191690831515021790555060006001600081548092919061030490610f7e565b919050559050816003600083815260200190815260200160002060006101000a81548173ffffffffffffffffffffffffffffffffffffffff021916908373ffffffffffffffffffffffffffffffffffffffff160217905550505b5b505050565b6000610370838361067b565b90508273ffffffffffffffffffffffffffffffffffffffff166362ad1b838333846040518463ffffffff1660e01b81526004016103af93929190610cb1565b600060405180830381600087803b1580156103c957600080fd5b505af11580156103dd573d6000803e3d6000fd5b505050506103ea8261096b565b505050565b60015481565b60008060008473ffffffffffffffffffffffffffffffffffffffff1673ffffffffffffffffffffffffffffffffffffffff16815260200190815260200160002060008373ffffffffffffffffffffffffffffffffffffffff1673ffffffffffffffffffffffffffffffffffffffff16815260200190815260200160002054905092915050565b6060600060015467ffffffffffffffff8111156104c1577f4e487b7100000000000000000000000000000000000000000000000000000000600052604160045260246000fd5b6040519080825280602002602001820160405280156104ef5781602001602082028036833780820191505090505b50905060005b6001548110156106715760008060008673ffffffffffffffffffffffffffffffffffffffff1673ffffffffffffffffffffffffffffffffffffffff16815260200190815260200160002060006003600085815260200190815260200160002060009054906101000a900473ffffffffffffffffffffffffffffffffffffffff1673ffffffffffffffffffffffffffffffffffffffff1673ffffffffffffffffffffffffffffffffffffffff16815260200190815260200160002054111561065e576003600082815260200190815260200160002060009054906101000a900473ffffffffffffffffffffffffffffffffffffffff16828281518110610623577f4e487b7100000000000000000000000000000000000000000000000000000000600052603260045260246000fd5b602002602001019073ffffffffffffffffffffffffffffffffffffffff16908173ffffffffffffffffffffffffffffffffffffffff16815250505b808061066990610f7e565b9150506104f5565b5080915050919050565b6000806000808573ffffffffffffffffffffffffffffffffffffffff1673ffffffffffffffffffffffffffffffffffffffff16815260200190815260200160002060008473ffffffffffffffffffffffffffffffffffffffff1673ffffffffffffffffffffffffffffffffffffffff16815260200190815260200160002054141561073b576040517f08c379a000000000000000000000000000000000000000000000000000000000815260040161073290610da7565b60405180910390fd5b60006107cb6000808673ffffffffffffffffffffffffffffffffffffffff1673ffffffffffffffffffffffffffffffffffffffff16815260200190815260200160002060008573ffffffffffffffffffffffffffffffffffffffff1673ffffffffffffffffffffffffffffffffffffffff16815260200190815260200160002054346109b590919063ffffffff16565b90508373ffffffffffffffffffffffffffffffffffffffff1663556f0dc76040518163ffffffff1660e01b815260040160206040518083038186803b15801561081357600080fd5b505afa158015610827573d6000803e3d6000fd5b505050506040513d601f19601f8201168201806040525081019061084b9190610b27565b811161088c576040517f08c379a000000000000000000000000000000000000000000000000000000000815260040161088390610dc7565b60405180910390fd5b600061091c6000808773ffffffffffffffffffffffffffffffffffffffff1673ffffffffffffffffffffffffffffffffffffffff16815260200190815260200160002060008673ffffffffffffffffffffffffffffffffffffffff1673ffffffffffffffffffffffffffffffffffffffff16815260200190815260200160002054836109cb90919063ffffffff16565b9050348114610960576040517f08c379a000000000000000000000000000000000000000000000000000000000815260040161095790610d67565b60405180910390fd5b819250505092915050565b8073ffffffffffffffffffffffffffffffffffffffff166108fc349081150290604051600060405180830381858888f193505050501580156109b1573d6000803e3d6000fd5b5050565b600081836109c39190610e5d565b905092915050565b600081836109d99190610e8e565b905092915050565b6000813590506109f0816110f2565b92915050565b600081359050610a0581611109565b92915050565b600081359050610a1a81611120565b92915050565b600081359050610a2f81611137565b92915050565b600081519050610a4481611137565b92915050565b600060208284031215610a5c57600080fd5b6000610a6a84828501610a0b565b91505092915050565b60008060408385031215610a8657600080fd5b6000610a9485828601610a0b565b9250506020610aa5858286016109e1565b9150509250929050565b60008060408385031215610ac257600080fd5b6000610ad085828601610a0b565b9250506020610ae1858286016109f6565b9150509250929050565b60008060408385031215610afe57600080fd5b6000610b0c85828601610a0b565b9250506020610b1d85828601610a20565b9150509250929050565b600060208284031215610b3957600080fd5b6000610b4784828501610a35565b91505092915050565b6000610b5c8383610b77565b60208301905092915050565b610b7181610f48565b82525050565b610b8081610ee8565b82525050565b610b8f81610ee8565b82525050565b6000610ba082610e12565b610baa8185610e2a565b9350610bb583610e02565b8060005b83811015610be6578151610bcd8882610b50565b9750610bd883610e1d565b925050600181019050610bb9565b5085935050505092915050565b6000610c00602683610e4c565b9150610c0b82611025565b604082019050919050565b6000610c23601783610e4c565b9150610c2e82611074565b602082019050919050565b6000610c46600083610e3b565b9150610c518261109d565b600082019050919050565b6000610c69600c83610e4c565b9150610c74826110a0565b602082019050919050565b6000610c8c601583610e4c565b9150610c97826110c9565b602082019050919050565b610cab81610f3e565b82525050565b600060a082019050610cc66000830186610b68565b610cd36020830185610b86565b610ce06040830184610ca2565b8181036060830152610cf181610c39565b90508181036080830152610d0481610c39565b9050949350505050565b6000606082019050610d236000830186610b86565b610d306020830185610b86565b610d3d6040830184610ca2565b949350505050565b60006020820190508181036000830152610d5f8184610b95565b905092915050565b60006020820190508181036000830152610d8081610bf3565b9050919050565b60006020820190508181036000830152610da081610c16565b9050919050565b60006020820190508181036000830152610dc081610c5c565b9050919050565b60006020820190508181036000830152610de081610c7f565b9050919050565b6000602082019050610dfc6000830184610ca2565b92915050565b6000819050602082019050919050565b600081519050919050565b6000602082019050919050565b600082825260208201905092915050565b600082825260208201905092915050565b600082825260208201905092915050565b6000610e6882610f3e565b9150610e7383610f3e565b925082610e8357610e82610ff6565b5b828204905092915050565b6000610e9982610f3e565b9150610ea483610f3e565b9250817fffffffffffffffffffffffffffffffffffffffffffffffffffffffffffffffff0483118215151615610edd57610edc610fc7565b5b828202905092915050565b6000610ef382610f1e565b9050919050565b6000610f0582610f1e565b9050919050565b6000610f1782610ee8565b9050919050565b600073ffffffffffffffffffffffffffffffffffffffff82169050919050565b6000819050919050565b6000610f5382610f5a565b9050919050565b6000610f6582610f6c565b9050919050565b6000610f7782610f1e565b9050919050565b6000610f8982610f3e565b91507fffffffffffffffffffffffffffffffffffffffffffffffffffffffffffffffff821415610fbc57610fbb610fc7565b5b600182019050919050565b7f4e487b7100000000000000000000000000000000000000000000000000000000600052601160045260246000fd5b7f4e487b7100000000000000000000000000000000000000000000000000000000600052601260045260246000fd5b7f6e6f6e2d696e7465676572206e756d626572206f6620746f6b656e732070757260008201527f6368617365640000000000000000000000000000000000000000000000000000602082015250565b7f50726963652063616e2774206265206e65676174697665000000000000000000600082015250565b50565b7f6e6f7420666f722073616c650000000000000000000000000000000000000000600082015250565b7f6e6f7420656e6f75676820657468657220706169640000000000000000000000600082015250565b6110fb81610ee8565b811461110657600080fd5b50565b61111281610efa565b811461111d57600080fd5b50565b61112981610f0c565b811461113457600080fd5b50565b61114081610f3e565b811461114b57600080fd5b5056fea2646970667358221220e70bc7b3c1e311c738e5977851b06c5c18a2d876ecd3c0eca2674ca9bb0c752e64736f6c63430008040033",
  "linkReferences": {},
  "deployedLinkReferences": {}
}