{
  "_format": "hh-sol-artifact-1",
  "contractName": "CheapARecipient",
  "sourceName": "contracts/CheapARecipient.sol",
  "abi": [
    {
      "anonymous": false,
      "inputs": [
        {
          "indexed": false,
          "internalType": "address",
          "name": "operator",
          "type": "address"
        },
        {
          "indexed": false,
          "internalType": "address",
          "name": "from",
          "type": "address"
        },
        {
          "indexed": false,
          "internalType": "address",
          "name": "to",
          "type": "address"
        },
        {
          "indexed": false,
          "internalType": "uint256",
          "name": "amount",
          "type": "uint256"
        },
        {
          "indexed": false,
          "internalType": "bytes",
          "name": "userData",
          "type": "bytes"
        },
        {
          "indexed": false,
          "internalType": "bytes",
          "name": "operatorData",
          "type": "bytes"
        }
      ],
      "name": "DoneStuff",
      "type": "event"
    },
    {
      "inputs": [],
      "name": "TOKENS_RECIPIENT_INTERFACE_HASH",
      "outputs": [
        {
          "internalType": "bytes32",
          "name": "",
          "type": "bytes32"
        }
      ],
      "stateMutability": "view",
      "type": "function"
    },
    {
      "inputs": [
        {
          "internalType": "bytes32",
          "name": "interfaceHash",
          "type": "bytes32"
        },
        {
          "internalType": "address",
          "name": "account",
          "type": "address"
        }
      ],
      "name": "canImplementInterfaceForAddress",
      "outputs": [
        {
          "internalType": "bytes32",
          "name": "",
          "type": "bytes32"
        }
      ],
      "stateMutability": "view",
      "type": "function"
    },
    {
      "inputs": [
        {
          "internalType": "address",
          "name": "account",
          "type": "address"
        }
      ],
      "name": "recipientFor",
      "outputs": [],
      "stateMutability": "nonpayable",
      "type": "function"
    },
    {
      "inputs": [
        {
          "internalType": "address",
          "name": "operator",
          "type": "address"
        },
        {
          "internalType": "address",
          "name": "from",
          "type": "address"
        },
        {
          "internalType": "address",
          "name": "to",
          "type": "address"
        },
        {
          "internalType": "uint256",
          "name": "amount",
          "type": "uint256"
        },
        {
          "internalType": "bytes",
          "name": "userData",
          "type": "bytes"
        },
        {
          "internalType": "bytes",
          "name": "operatorData",
          "type": "bytes"
        }
      ],
      "name": "tokensReceived",
      "outputs": [],
      "stateMutability": "nonpayable",
      "type": "function"
    }
  ],
  "bytecode": "0x608060405234801561001057600080fd5b50610603806100206000396000f3fe608060405234801561001057600080fd5b506004361061004b5760003560e01c806223de2914610050578063249cb3fa1461006c57806372581cc01461009c578063e0eb2180146100ba575b600080fd5b61006a6004803603810190610065919061032a565b6100d6565b005b610086600480360381019061008191906103ed565b610125565b60405161009391906104f6565b60405180910390f35b6100a46101bb565b6040516100b191906104f6565b60405180910390f35b6100d460048036038101906100cf9190610301565b6101df565b005b7fa0a5a35754b3519ae614f00422ac62a6bc4608ccb722963aab00cb48c588ad728888888888888888604051610113989796959493929190610483565b60405180910390a15050505050505050565b600080600084815260200190815260200160002060008373ffffffffffffffffffffffffffffffffffffffff1673ffffffffffffffffffffffffffffffffffffffff16815260200190815260200160002060009054906101000a900460ff16610191576000801b6101b3565b7fa2ef4600d742022d532d4747cb3547474667d6f13804902513b2ec01c848f4b45b905092915050565b7fb281fc8c12954d22544db45de3159a39272895b169a852b314f9cc762e44c53b81565b6102097fb281fc8c12954d22544db45de3159a39272895b169a852b314f9cc762e44c53b8261020c565b50565b600160008084815260200190815260200160002060008373ffffffffffffffffffffffffffffffffffffffff1673ffffffffffffffffffffffffffffffffffffffff16815260200190815260200160002060006101000a81548160ff0219169083151502179055505050565b60008135905061028781610588565b92915050565b60008135905061029c8161059f565b92915050565b60008083601f8401126102b457600080fd5b8235905067ffffffffffffffff8111156102cd57600080fd5b6020830191508360018202830111156102e557600080fd5b9250929050565b6000813590506102fb816105b6565b92915050565b60006020828403121561031357600080fd5b600061032184828501610278565b91505092915050565b60008060008060008060008060c0898b03121561034657600080fd5b60006103548b828c01610278565b98505060206103658b828c01610278565b97505060406103768b828c01610278565b96505060606103878b828c016102ec565b955050608089013567ffffffffffffffff8111156103a457600080fd5b6103b08b828c016102a2565b945094505060a089013567ffffffffffffffff8111156103cf57600080fd5b6103db8b828c016102a2565b92509250509295985092959890939650565b6000806040838503121561040057600080fd5b600061040e8582860161028d565b925050602061041f85828601610278565b9150509250929050565b61043281610522565b82525050565b61044181610534565b82525050565b60006104538385610511565b9350610460838584610568565b61046983610577565b840190509392505050565b61047d8161055e565b82525050565b600060c082019050610498600083018b610429565b6104a5602083018a610429565b6104b26040830189610429565b6104bf6060830188610474565b81810360808301526104d2818688610447565b905081810360a08301526104e7818486610447565b90509998505050505050505050565b600060208201905061050b6000830184610438565b92915050565b600082825260208201905092915050565b600061052d8261053e565b9050919050565b6000819050919050565b600073ffffffffffffffffffffffffffffffffffffffff82169050919050565b6000819050919050565b82818337600083830152505050565b6000601f19601f8301169050919050565b61059181610522565b811461059c57600080fd5b50565b6105a881610534565b81146105b357600080fd5b50565b6105bf8161055e565b81146105ca57600080fd5b5056fea2646970667358221220107faa16c3bea8076b592b4f37aae8a819a7b6d1a1ae07c99290a4868a3e1a8f64736f6c63430008040033",
  "linkReferences": {},
  "deployedLinkReferences": {}
}