{
  "_format": "hh-sol-artifact-1",
  "contractName": "BulkSender",
  "sourceName": "contracts/BulkSender.sol",
  "abi": [
    {
      "inputs": [
        {
          "internalType": "contract IERC777",
          "name": "_token",
          "type": "address"
        },
        {
          "internalType": "address[]",
          "name": "_recipients",
          "type": "address[]"
        },
        {
          "internalType": "uint256",
          "name": "_amount",
          "type": "uint256"
        },
        {
          "internalType": "bytes",
          "name": "_data",
          "type": "bytes"
        }
      ],
      "name": "send",
      "outputs": [],
      "stateMutability": "nonpayable",
      "type": "function"
    },
    {
      "inputs": [
        {
          "internalType": "contract IERC777",
          "name": "_token",
          "type": "address"
        },
        {
          "internalType": "address[]",
          "name": "_recipients",
          "type": "address[]"
        },
        {
          "internalType": "uint256[]",
          "name": "_amounts",
          "type": "uint256[]"
        },
        {
          "internalType": "bytes",
          "name": "_data",
          "type": "bytes"
        }
      ],
      "name": "sendAmounts",
      "outputs": [],
      "stateMutability": "nonpayable",
      "type": "function"
    }
  ],
  "bytecode": "0x608060405234801561001057600080fd5b5061090c806100206000396000f3fe608060405234801561001057600080fd5b50600436106100365760003560e01c8063021ebbde1461003b57806314d90eb014610057575b600080fd5b610055600480360381019061005091906104df565b610073565b005b610071600480360381019061006c9190610434565b61014a565b005b60005b8351811015610143578473ffffffffffffffffffffffffffffffffffffffff166362ad1b83338684815181106100d5577f4e487b7100000000000000000000000000000000000000000000000000000000600052603260045260246000fd5b602002602001015186866040518563ffffffff1660e01b81526004016100fe94939291906105ec565b600060405180830381600087803b15801561011857600080fd5b505af115801561012c573d6000803e3d6000fd5b50505050808061013b906107d6565b915050610076565b5050505050565b60005b835181101561025a578473ffffffffffffffffffffffffffffffffffffffff166362ad1b83338684815181106101ac577f4e487b7100000000000000000000000000000000000000000000000000000000600052603260045260246000fd5b60200260200101518685815181106101ed577f4e487b7100000000000000000000000000000000000000000000000000000000600052603260045260246000fd5b6020026020010151866040518563ffffffff1660e01b815260040161021594939291906105ec565b600060405180830381600087803b15801561022f57600080fd5b505af1158015610243573d6000803e3d6000fd5b505050508080610252906107d6565b91505061014d565b5050505050565b600061027461026f84610670565b61064b565b9050808382526020820190508285602086028201111561029357600080fd5b60005b858110156102c357816102a98882610377565b845260208401935060208301925050600181019050610296565b5050509392505050565b60006102e06102db8461069c565b61064b565b905080838252602082019050828560208602820111156102ff57600080fd5b60005b8581101561032f5781610315888261041f565b845260208401935060208301925050600181019050610302565b5050509392505050565b600061034c610347846106c8565b61064b565b90508281526020810184848401111561036457600080fd5b61036f848285610763565b509392505050565b60008135905061038681610891565b92915050565b600082601f83011261039d57600080fd5b81356103ad848260208601610261565b91505092915050565b600082601f8301126103c757600080fd5b81356103d78482602086016102cd565b91505092915050565b600082601f8301126103f157600080fd5b8135610401848260208601610339565b91505092915050565b600081359050610419816108a8565b92915050565b60008135905061042e816108bf565b92915050565b6000806000806080858703121561044a57600080fd5b60006104588782880161040a565b945050602085013567ffffffffffffffff81111561047557600080fd5b6104818782880161038c565b935050604085013567ffffffffffffffff81111561049e57600080fd5b6104aa878288016103b6565b925050606085013567ffffffffffffffff8111156104c757600080fd5b6104d3878288016103e0565b91505092959194509250565b600080600080608085870312156104f557600080fd5b60006105038782880161040a565b945050602085013567ffffffffffffffff81111561052057600080fd5b61052c8782880161038c565b935050604061053d8782880161041f565b925050606085013567ffffffffffffffff81111561055a57600080fd5b610566878288016103e0565b91505092959194509250565b61057b81610715565b82525050565b600061058c826106f9565b6105968185610704565b93506105a6818560208601610772565b6105af8161087d565b840191505092915050565b60006105c7600083610704565b91506105d28261088e565b600082019050919050565b6105e681610759565b82525050565b600060a0820190506106016000830187610572565b61060e6020830186610572565b61061b60408301856105dd565b818103606083015261062d8184610581565b90508181036080830152610640816105ba565b905095945050505050565b6000610655610666565b905061066182826107a5565b919050565b6000604051905090565b600067ffffffffffffffff82111561068b5761068a61084e565b5b602082029050602081019050919050565b600067ffffffffffffffff8211156106b7576106b661084e565b5b602082029050602081019050919050565b600067ffffffffffffffff8211156106e3576106e261084e565b5b6106ec8261087d565b9050602081019050919050565b600081519050919050565b600082825260208201905092915050565b600061072082610739565b9050919050565b600061073282610715565b9050919050565b600073ffffffffffffffffffffffffffffffffffffffff82169050919050565b6000819050919050565b82818337600083830152505050565b60005b83811015610790578082015181840152602081019050610775565b8381111561079f576000848401525b50505050565b6107ae8261087d565b810181811067ffffffffffffffff821117156107cd576107cc61084e565b5b80604052505050565b60006107e182610759565b91507fffffffffffffffffffffffffffffffffffffffffffffffffffffffffffffffff8214156108145761081361081f565b5b600182019050919050565b7f4e487b7100000000000000000000000000000000000000000000000000000000600052601160045260246000fd5b7f4e487b7100000000000000000000000000000000000000000000000000000000600052604160045260246000fd5b6000601f19601f8301169050919050565b50565b61089a81610715565b81146108a557600080fd5b50565b6108b181610727565b81146108bc57600080fd5b50565b6108c881610759565b81146108d357600080fd5b5056fea26469706673582212203ae7a2a6eab13d242dddbf1cc7cfc4659b67b66410416ebf47454bccd7423e8464736f6c63430008040033",
  "linkReferences": {},
  "deployedLinkReferences": {}
}