{
  "_format": "hh-sol-artifact-1",
  "contractName": "CheapASender",
  "sourceName": "contracts/CheapASender.sol",
  "abi": [
    {
      "anonymous": false,
      "inputs": [
        {
          "indexed": false,
          "internalType": "address",
          "name": "operator",
          "type": "address"
        },
        {
          "indexed": false,
          "internalType": "address",
          "name": "from",
          "type": "address"
        },
        {
          "indexed": false,
          "internalType": "address",
          "name": "to",
          "type": "address"
        },
        {
          "indexed": false,
          "internalType": "uint256",
          "name": "amount",
          "type": "uint256"
        },
        {
          "indexed": false,
          "internalType": "bytes",
          "name": "userData",
          "type": "bytes"
        },
        {
          "indexed": false,
          "internalType": "bytes",
          "name": "operatorData",
          "type": "bytes"
        }
      ],
      "name": "DoneStuff",
      "type": "event"
    },
    {
      "inputs": [],
      "name": "TOKENS_SENDER_INTERFACE_HASH",
      "outputs": [
        {
          "internalType": "bytes32",
          "name": "",
          "type": "bytes32"
        }
      ],
      "stateMutability": "view",
      "type": "function"
    },
    {
      "inputs": [
        {
          "internalType": "bytes32",
          "name": "interfaceHash",
          "type": "bytes32"
        },
        {
          "internalType": "address",
          "name": "account",
          "type": "address"
        }
      ],
      "name": "canImplementInterfaceForAddress",
      "outputs": [
        {
          "internalType": "bytes32",
          "name": "",
          "type": "bytes32"
        }
      ],
      "stateMutability": "view",
      "type": "function"
    },
    {
      "inputs": [
        {
          "internalType": "address",
          "name": "account",
          "type": "address"
        }
      ],
      "name": "senderFor",
      "outputs": [],
      "stateMutability": "nonpayable",
      "type": "function"
    },
    {
      "inputs": [
        {
          "internalType": "address",
          "name": "operator",
          "type": "address"
        },
        {
          "internalType": "address",
          "name": "from",
          "type": "address"
        },
        {
          "internalType": "address",
          "name": "to",
          "type": "address"
        },
        {
          "internalType": "uint256",
          "name": "amount",
          "type": "uint256"
        },
        {
          "internalType": "bytes",
          "name": "userData",
          "type": "bytes"
        },
        {
          "internalType": "bytes",
          "name": "operatorData",
          "type": "bytes"
        }
      ],
      "name": "tokensToSend",
      "outputs": [],
      "stateMutability": "nonpayable",
      "type": "function"
    }
  ],
  "bytecode": "0x608060405234801561001057600080fd5b50610604806100206000396000f3fe608060405234801561001057600080fd5b506004361061004c5760003560e01c8063249cb3fa14610051578063669b05321461008157806375ab97821461009f578063d2de6474146100bb575b600080fd5b61006b600480360381019061006691906103ee565b6100d7565b60405161007891906104f7565b60405180910390f35b61008961016d565b60405161009691906104f7565b60405180910390f35b6100b960048036038101906100b4919061032b565b610191565b005b6100d560048036038101906100d09190610302565b6101e0565b005b600080600084815260200190815260200160002060008373ffffffffffffffffffffffffffffffffffffffff1673ffffffffffffffffffffffffffffffffffffffff16815260200190815260200160002060009054906101000a900460ff16610143576000801b610165565b7fa2ef4600d742022d532d4747cb3547474667d6f13804902513b2ec01c848f4b45b905092915050565b7f29ddb589b1fb5fc7cf394961c1adf5f8c6454761adf795e67fe149f658abe89581565b7fa0a5a35754b3519ae614f00422ac62a6bc4608ccb722963aab00cb48c588ad7288888888888888886040516101ce989796959493929190610484565b60405180910390a15050505050505050565b61020a7f29ddb589b1fb5fc7cf394961c1adf5f8c6454761adf795e67fe149f658abe8958261020d565b50565b600160008084815260200190815260200160002060008373ffffffffffffffffffffffffffffffffffffffff1673ffffffffffffffffffffffffffffffffffffffff16815260200190815260200160002060006101000a81548160ff0219169083151502179055505050565b60008135905061028881610589565b92915050565b60008135905061029d816105a0565b92915050565b60008083601f8401126102b557600080fd5b8235905067ffffffffffffffff8111156102ce57600080fd5b6020830191508360018202830111156102e657600080fd5b9250929050565b6000813590506102fc816105b7565b92915050565b60006020828403121561031457600080fd5b600061032284828501610279565b91505092915050565b60008060008060008060008060c0898b03121561034757600080fd5b60006103558b828c01610279565b98505060206103668b828c01610279565b97505060406103778b828c01610279565b96505060606103888b828c016102ed565b955050608089013567ffffffffffffffff8111156103a557600080fd5b6103b18b828c016102a3565b945094505060a089013567ffffffffffffffff8111156103d057600080fd5b6103dc8b828c016102a3565b92509250509295985092959890939650565b6000806040838503121561040157600080fd5b600061040f8582860161028e565b925050602061042085828601610279565b9150509250929050565b61043381610523565b82525050565b61044281610535565b82525050565b60006104548385610512565b9350610461838584610569565b61046a83610578565b840190509392505050565b61047e8161055f565b82525050565b600060c082019050610499600083018b61042a565b6104a6602083018a61042a565b6104b3604083018961042a565b6104c06060830188610475565b81810360808301526104d3818688610448565b905081810360a08301526104e8818486610448565b90509998505050505050505050565b600060208201905061050c6000830184610439565b92915050565b600082825260208201905092915050565b600061052e8261053f565b9050919050565b6000819050919050565b600073ffffffffffffffffffffffffffffffffffffffff82169050919050565b6000819050919050565b82818337600083830152505050565b6000601f19601f8301169050919050565b61059281610523565b811461059d57600080fd5b50565b6105a981610535565b81146105b457600080fd5b50565b6105c08161055f565b81146105cb57600080fd5b5056fea2646970667358221220e34256ed993326a9c8872c27b26ce41f269fd40ea438a2f3052e5ba3ecbd162264736f6c63430008040033",
  "linkReferences": {},
  "deployedLinkReferences": {}
}